{
  "_format": "hh-sol-artifact-1",
  "contractName": "EvsdGovernor",
  "sourceName": "contracts/EvsdGovernor.sol",
  "abi": [
    {
      "inputs": [
        {
          "internalType": "contract IVotes",
          "name": "_token",
          "type": "address"
        },
        {
          "internalType": "address",
          "name": "initialOwner",
          "type": "address"
        }
      ],
      "stateMutability": "nonpayable",
      "type": "constructor"
    },
    {
      "inputs": [],
      "name": "FailedCall",
      "type": "error"
    },
    {
      "inputs": [
        {
          "internalType": "address",
          "name": "voter",
          "type": "address"
        }
      ],
      "name": "GovernorAlreadyCastVote",
      "type": "error"
    },
    {
      "inputs": [
        {
          "internalType": "uint256",
          "name": "proposalId",
          "type": "uint256"
        }
      ],
      "name": "GovernorAlreadyQueuedProposal",
      "type": "error"
    },
    {
      "inputs": [],
      "name": "GovernorDisabledDeposit",
      "type": "error"
    },
    {
      "inputs": [
        {
          "internalType": "address",
          "name": "proposer",
          "type": "address"
        },
        {
          "internalType": "uint256",
          "name": "votes",
          "type": "uint256"
        },
        {
          "internalType": "uint256",
          "name": "threshold",
          "type": "uint256"
        }
      ],
      "name": "GovernorInsufficientProposerVotes",
      "type": "error"
    },
    {
      "inputs": [
        {
          "internalType": "uint256",
          "name": "targets",
          "type": "uint256"
        },
        {
          "internalType": "uint256",
          "name": "calldatas",
          "type": "uint256"
        },
        {
          "internalType": "uint256",
          "name": "values",
          "type": "uint256"
        }
      ],
      "name": "GovernorInvalidProposalLength",
      "type": "error"
    },
    {
      "inputs": [
        {
          "internalType": "address",
          "name": "voter",
          "type": "address"
        }
      ],
      "name": "GovernorInvalidSignature",
      "type": "error"
    },
    {
      "inputs": [],
      "name": "GovernorInvalidVoteParams",
      "type": "error"
    },
    {
      "inputs": [],
      "name": "GovernorInvalidVoteType",
      "type": "error"
    },
    {
      "inputs": [
        {
          "internalType": "uint256",
          "name": "votingPeriod",
          "type": "uint256"
        }
      ],
      "name": "GovernorInvalidVotingPeriod",
      "type": "error"
    },
    {
      "inputs": [
        {
          "internalType": "uint256",
          "name": "proposalId",
          "type": "uint256"
        }
      ],
      "name": "GovernorNonexistentProposal",
      "type": "error"
    },
    {
      "inputs": [
        {
          "internalType": "uint256",
          "name": "proposalId",
          "type": "uint256"
        }
      ],
      "name": "GovernorNotQueuedProposal",
      "type": "error"
    },
    {
      "inputs": [
        {
          "internalType": "address",
          "name": "account",
          "type": "address"
        }
      ],
      "name": "GovernorOnlyExecutor",
      "type": "error"
    },
    {
      "inputs": [],
      "name": "GovernorQueueNotImplemented",
      "type": "error"
    },
    {
      "inputs": [
        {
          "internalType": "address",
          "name": "proposer",
          "type": "address"
        }
      ],
      "name": "GovernorRestrictedProposer",
      "type": "error"
    },
    {
      "inputs": [
        {
          "internalType": "uint256",
          "name": "proposalId",
          "type": "uint256"
        },
        {
          "internalType": "address",
          "name": "account",
          "type": "address"
        }
      ],
      "name": "GovernorUnableToCancel",
      "type": "error"
    },
    {
      "inputs": [
        {
          "internalType": "uint256",
          "name": "proposalId",
          "type": "uint256"
        },
        {
          "internalType": "enum IGovernor.ProposalState",
          "name": "current",
          "type": "uint8"
        },
        {
          "internalType": "bytes32",
          "name": "expectedStates",
          "type": "bytes32"
        }
      ],
      "name": "GovernorUnexpectedProposalState",
      "type": "error"
    },
    {
      "inputs": [
        {
          "internalType": "address",
          "name": "account",
          "type": "address"
        },
        {
          "internalType": "uint256",
          "name": "currentNonce",
          "type": "uint256"
        }
      ],
      "name": "InvalidAccountNonce",
      "type": "error"
    },
    {
      "inputs": [],
      "name": "InvalidShortString",
      "type": "error"
    },
    {
      "inputs": [
        {
          "internalType": "address",
          "name": "owner",
          "type": "address"
        }
      ],
      "name": "OwnableInvalidOwner",
      "type": "error"
    },
    {
      "inputs": [
        {
          "internalType": "address",
          "name": "account",
          "type": "address"
        }
      ],
      "name": "OwnableUnauthorizedAccount",
      "type": "error"
    },
    {
      "inputs": [
        {
          "internalType": "uint8",
          "name": "bits",
          "type": "uint8"
        },
        {
          "internalType": "uint256",
          "name": "value",
          "type": "uint256"
        }
      ],
      "name": "SafeCastOverflowedUintDowncast",
      "type": "error"
    },
    {
      "inputs": [
        {
          "internalType": "string",
          "name": "str",
          "type": "string"
        }
      ],
      "name": "StringTooLong",
      "type": "error"
    },
    {
      "anonymous": false,
      "inputs": [],
      "name": "EIP712DomainChanged",
      "type": "event"
    },
    {
      "anonymous": false,
      "inputs": [
        {
          "indexed": true,
          "internalType": "address",
          "name": "previousOwner",
          "type": "address"
        },
        {
          "indexed": true,
          "internalType": "address",
          "name": "newOwner",
          "type": "address"
        }
      ],
      "name": "OwnershipTransferred",
      "type": "event"
    },
    {
      "anonymous": false,
      "inputs": [
        {
          "indexed": false,
          "internalType": "uint256",
          "name": "proposalId",
          "type": "uint256"
        }
      ],
      "name": "ProposalCanceled",
      "type": "event"
    },
    {
      "anonymous": false,
      "inputs": [
        {
          "indexed": false,
          "internalType": "uint256",
          "name": "proposalId",
          "type": "uint256"
        },
        {
          "indexed": false,
          "internalType": "address",
          "name": "proposer",
          "type": "address"
        },
        {
          "indexed": false,
          "internalType": "address[]",
          "name": "targets",
          "type": "address[]"
        },
        {
          "indexed": false,
          "internalType": "uint256[]",
          "name": "values",
          "type": "uint256[]"
        },
        {
          "indexed": false,
          "internalType": "string[]",
          "name": "signatures",
          "type": "string[]"
        },
        {
          "indexed": false,
          "internalType": "bytes[]",
          "name": "calldatas",
          "type": "bytes[]"
        },
        {
          "indexed": false,
          "internalType": "uint256",
          "name": "voteStart",
          "type": "uint256"
        },
        {
          "indexed": false,
          "internalType": "uint256",
          "name": "voteEnd",
          "type": "uint256"
        },
        {
          "indexed": false,
          "internalType": "string",
          "name": "description",
          "type": "string"
        }
      ],
      "name": "ProposalCreated",
      "type": "event"
    },
    {
      "anonymous": false,
      "inputs": [
        {
          "indexed": false,
          "internalType": "uint256",
          "name": "proposalId",
          "type": "uint256"
        }
      ],
      "name": "ProposalExecuted",
      "type": "event"
    },
    {
      "anonymous": false,
      "inputs": [
        {
          "indexed": false,
          "internalType": "uint256",
          "name": "proposalId",
          "type": "uint256"
        },
        {
          "indexed": false,
          "internalType": "uint256",
          "name": "etaSeconds",
          "type": "uint256"
        }
      ],
      "name": "ProposalQueued",
      "type": "event"
    },
    {
      "anonymous": false,
      "inputs": [
        {
          "indexed": false,
          "internalType": "uint256",
          "name": "oldProposalThreshold",
          "type": "uint256"
        },
        {
          "indexed": false,
          "internalType": "uint256",
          "name": "newProposalThreshold",
          "type": "uint256"
        }
      ],
      "name": "ProposalThresholdSet",
      "type": "event"
    },
    {
      "anonymous": false,
      "inputs": [
        {
          "indexed": true,
          "internalType": "address",
          "name": "voter",
          "type": "address"
        },
        {
          "indexed": false,
          "internalType": "uint256",
          "name": "proposalId",
          "type": "uint256"
        },
        {
          "indexed": false,
          "internalType": "uint8",
          "name": "support",
          "type": "uint8"
        },
        {
          "indexed": false,
          "internalType": "uint256",
          "name": "weight",
          "type": "uint256"
        },
        {
          "indexed": false,
          "internalType": "string",
          "name": "reason",
          "type": "string"
        }
      ],
      "name": "VoteCast",
      "type": "event"
    },
    {
      "anonymous": false,
      "inputs": [
        {
          "indexed": true,
          "internalType": "address",
          "name": "voter",
          "type": "address"
        },
        {
          "indexed": false,
          "internalType": "uint256",
          "name": "proposalId",
          "type": "uint256"
        },
        {
          "indexed": false,
          "internalType": "uint8",
          "name": "support",
          "type": "uint8"
        },
        {
          "indexed": false,
          "internalType": "uint256",
          "name": "weight",
          "type": "uint256"
        },
        {
          "indexed": false,
          "internalType": "string",
          "name": "reason",
          "type": "string"
        },
        {
          "indexed": false,
          "internalType": "bytes",
          "name": "params",
          "type": "bytes"
        }
      ],
      "name": "VoteCastWithParams",
      "type": "event"
    },
    {
      "anonymous": false,
      "inputs": [
        {
          "indexed": true,
          "internalType": "address",
          "name": "voter",
          "type": "address"
        }
      ],
      "name": "VoterRegistered",
      "type": "event"
    },
    {
      "anonymous": false,
      "inputs": [
        {
          "indexed": true,
          "internalType": "address",
          "name": "voter",
          "type": "address"
        }
      ],
      "name": "VoterRemoved",
      "type": "event"
    },
    {
      "anonymous": false,
      "inputs": [
        {
          "indexed": false,
          "internalType": "uint256",
          "name": "oldVotingDelay",
          "type": "uint256"
        },
        {
          "indexed": false,
          "internalType": "uint256",
          "name": "newVotingDelay",
          "type": "uint256"
        }
      ],
      "name": "VotingDelaySet",
      "type": "event"
    },
    {
      "anonymous": false,
      "inputs": [
        {
          "indexed": false,
          "internalType": "uint256",
          "name": "oldVotingPeriod",
          "type": "uint256"
        },
        {
          "indexed": false,
          "internalType": "uint256",
          "name": "newVotingPeriod",
          "type": "uint256"
        }
      ],
      "name": "VotingPeriodSet",
      "type": "event"
    },
    {
      "inputs": [],
      "name": "BALLOT_TYPEHASH",
      "outputs": [
        {
          "internalType": "bytes32",
          "name": "",
          "type": "bytes32"
        }
      ],
      "stateMutability": "view",
      "type": "function"
    },
    {
      "inputs": [],
      "name": "CLOCK_MODE",
      "outputs": [
        {
          "internalType": "string",
          "name": "",
          "type": "string"
        }
      ],
      "stateMutability": "view",
      "type": "function"
    },
    {
      "inputs": [],
      "name": "COUNTING_MODE",
      "outputs": [
        {
          "internalType": "string",
          "name": "",
          "type": "string"
        }
      ],
      "stateMutability": "pure",
      "type": "function"
    },
    {
      "inputs": [],
      "name": "EXTENDED_BALLOT_TYPEHASH",
      "outputs": [
        {
          "internalType": "bytes32",
          "name": "",
          "type": "bytes32"
        }
      ],
      "stateMutability": "view",
      "type": "function"
    },
    {
      "inputs": [
        {
          "internalType": "address[]",
          "name": "targets",
          "type": "address[]"
        },
        {
          "internalType": "uint256[]",
          "name": "values",
          "type": "uint256[]"
        },
        {
          "internalType": "bytes[]",
          "name": "calldatas",
          "type": "bytes[]"
        },
        {
          "internalType": "bytes32",
          "name": "descriptionHash",
          "type": "bytes32"
        }
      ],
      "name": "cancel",
      "outputs": [
        {
          "internalType": "uint256",
          "name": "",
          "type": "uint256"
        }
      ],
      "stateMutability": "nonpayable",
      "type": "function"
    },
    {
      "inputs": [
        {
          "internalType": "uint256",
          "name": "proposalId",
          "type": "uint256"
        },
        {
          "internalType": "uint8",
          "name": "support",
          "type": "uint8"
        }
      ],
      "name": "castVote",
      "outputs": [
        {
          "internalType": "uint256",
          "name": "",
          "type": "uint256"
        }
      ],
      "stateMutability": "nonpayable",
      "type": "function"
    },
    {
      "inputs": [
        {
          "internalType": "uint256",
          "name": "proposalId",
          "type": "uint256"
        },
        {
          "internalType": "uint8",
          "name": "support",
          "type": "uint8"
        },
        {
          "internalType": "address",
          "name": "voter",
          "type": "address"
        },
        {
          "internalType": "bytes",
          "name": "signature",
          "type": "bytes"
        }
      ],
      "name": "castVoteBySig",
      "outputs": [
        {
          "internalType": "uint256",
          "name": "",
          "type": "uint256"
        }
      ],
      "stateMutability": "nonpayable",
      "type": "function"
    },
    {
      "inputs": [
        {
          "internalType": "uint256",
          "name": "proposalId",
          "type": "uint256"
        },
        {
          "internalType": "uint8",
          "name": "support",
          "type": "uint8"
        },
        {
          "internalType": "string",
          "name": "reason",
          "type": "string"
        }
      ],
      "name": "castVoteWithReason",
      "outputs": [
        {
          "internalType": "uint256",
          "name": "",
          "type": "uint256"
        }
      ],
      "stateMutability": "nonpayable",
      "type": "function"
    },
    {
      "inputs": [
        {
          "internalType": "uint256",
          "name": "proposalId",
          "type": "uint256"
        },
        {
          "internalType": "uint8",
          "name": "support",
          "type": "uint8"
        },
        {
          "internalType": "string",
          "name": "reason",
          "type": "string"
        },
        {
          "internalType": "bytes",
          "name": "params",
          "type": "bytes"
        }
      ],
      "name": "castVoteWithReasonAndParams",
      "outputs": [
        {
          "internalType": "uint256",
          "name": "",
          "type": "uint256"
        }
      ],
      "stateMutability": "nonpayable",
      "type": "function"
    },
    {
      "inputs": [
        {
          "internalType": "uint256",
          "name": "proposalId",
          "type": "uint256"
        },
        {
          "internalType": "uint8",
          "name": "support",
          "type": "uint8"
        },
        {
          "internalType": "address",
          "name": "voter",
          "type": "address"
        },
        {
          "internalType": "string",
          "name": "reason",
          "type": "string"
        },
        {
          "internalType": "bytes",
          "name": "params",
          "type": "bytes"
        },
        {
          "internalType": "bytes",
          "name": "signature",
          "type": "bytes"
        }
      ],
      "name": "castVoteWithReasonAndParamsBySig",
      "outputs": [
        {
          "internalType": "uint256",
          "name": "",
          "type": "uint256"
        }
      ],
      "stateMutability": "nonpayable",
      "type": "function"
    },
    {
      "inputs": [],
      "name": "clock",
      "outputs": [
        {
          "internalType": "uint48",
          "name": "",
          "type": "uint48"
        }
      ],
      "stateMutability": "view",
      "type": "function"
    },
    {
      "inputs": [],
      "name": "eip712Domain",
      "outputs": [
        {
          "internalType": "bytes1",
          "name": "fields",
          "type": "bytes1"
        },
        {
          "internalType": "string",
          "name": "name",
          "type": "string"
        },
        {
          "internalType": "string",
          "name": "version",
          "type": "string"
        },
        {
          "internalType": "uint256",
          "name": "chainId",
          "type": "uint256"
        },
        {
          "internalType": "address",
          "name": "verifyingContract",
          "type": "address"
        },
        {
          "internalType": "bytes32",
          "name": "salt",
          "type": "bytes32"
        },
        {
          "internalType": "uint256[]",
          "name": "extensions",
          "type": "uint256[]"
        }
      ],
      "stateMutability": "view",
      "type": "function"
    },
    {
      "inputs": [
        {
          "internalType": "address[]",
          "name": "targets",
          "type": "address[]"
        },
        {
          "internalType": "uint256[]",
          "name": "values",
          "type": "uint256[]"
        },
        {
          "internalType": "bytes[]",
          "name": "calldatas",
          "type": "bytes[]"
        },
        {
          "internalType": "bytes32",
          "name": "descriptionHash",
          "type": "bytes32"
        }
      ],
      "name": "execute",
      "outputs": [
        {
          "internalType": "uint256",
          "name": "",
          "type": "uint256"
        }
      ],
      "stateMutability": "payable",
      "type": "function"
    },
    {
      "inputs": [
        {
          "internalType": "address[]",
          "name": "targets",
          "type": "address[]"
        },
        {
          "internalType": "uint256[]",
          "name": "values",
          "type": "uint256[]"
        },
        {
          "internalType": "bytes[]",
          "name": "calldatas",
          "type": "bytes[]"
        },
        {
          "internalType": "bytes32",
          "name": "descriptionHash",
          "type": "bytes32"
        }
      ],
      "name": "getProposalId",
      "outputs": [
        {
          "internalType": "uint256",
          "name": "",
          "type": "uint256"
        }
      ],
      "stateMutability": "view",
      "type": "function"
    },
    {
      "inputs": [
        {
          "internalType": "address",
          "name": "account",
          "type": "address"
        },
        {
          "internalType": "uint256",
          "name": "timepoint",
          "type": "uint256"
        }
      ],
      "name": "getVotes",
      "outputs": [
        {
          "internalType": "uint256",
          "name": "",
          "type": "uint256"
        }
      ],
      "stateMutability": "view",
      "type": "function"
    },
    {
      "inputs": [
        {
          "internalType": "address",
          "name": "account",
          "type": "address"
        },
        {
          "internalType": "uint256",
          "name": "timepoint",
          "type": "uint256"
        },
        {
          "internalType": "bytes",
          "name": "params",
          "type": "bytes"
        }
      ],
      "name": "getVotesWithParams",
      "outputs": [
        {
          "internalType": "uint256",
          "name": "",
          "type": "uint256"
        }
      ],
      "stateMutability": "view",
      "type": "function"
    },
    {
      "inputs": [
        {
          "internalType": "uint256",
          "name": "proposalId",
          "type": "uint256"
        },
        {
          "internalType": "address",
          "name": "account",
          "type": "address"
        }
      ],
      "name": "hasVoted",
      "outputs": [
        {
          "internalType": "bool",
          "name": "",
          "type": "bool"
        }
      ],
      "stateMutability": "view",
      "type": "function"
    },
    {
      "inputs": [
        {
          "internalType": "address",
          "name": "",
          "type": "address"
        }
      ],
      "name": "hasVotingRights",
      "outputs": [
        {
          "internalType": "bool",
          "name": "",
          "type": "bool"
        }
      ],
      "stateMutability": "view",
      "type": "function"
    },
    {
      "inputs": [
        {
          "internalType": "address[]",
          "name": "targets",
          "type": "address[]"
        },
        {
          "internalType": "uint256[]",
          "name": "values",
          "type": "uint256[]"
        },
        {
          "internalType": "bytes[]",
          "name": "calldatas",
          "type": "bytes[]"
        },
        {
          "internalType": "bytes32",
          "name": "descriptionHash",
          "type": "bytes32"
        }
      ],
      "name": "hashProposal",
      "outputs": [
        {
          "internalType": "uint256",
          "name": "",
          "type": "uint256"
        }
      ],
      "stateMutability": "pure",
      "type": "function"
    },
    {
      "inputs": [],
      "name": "name",
      "outputs": [
        {
          "internalType": "string",
          "name": "",
          "type": "string"
        }
      ],
      "stateMutability": "view",
      "type": "function"
    },
    {
      "inputs": [
        {
          "internalType": "address",
          "name": "owner",
          "type": "address"
        }
      ],
      "name": "nonces",
      "outputs": [
        {
          "internalType": "uint256",
          "name": "",
          "type": "uint256"
        }
      ],
      "stateMutability": "view",
      "type": "function"
    },
    {
      "inputs": [
        {
          "internalType": "address",
          "name": "",
          "type": "address"
        },
        {
          "internalType": "address",
          "name": "",
          "type": "address"
        },
        {
          "internalType": "uint256[]",
          "name": "",
          "type": "uint256[]"
        },
        {
          "internalType": "uint256[]",
          "name": "",
          "type": "uint256[]"
        },
        {
          "internalType": "bytes",
          "name": "",
          "type": "bytes"
        }
      ],
      "name": "onERC1155BatchReceived",
      "outputs": [
        {
          "internalType": "bytes4",
          "name": "",
          "type": "bytes4"
        }
      ],
      "stateMutability": "nonpayable",
      "type": "function"
    },
    {
      "inputs": [
        {
          "internalType": "address",
          "name": "",
          "type": "address"
        },
        {
          "internalType": "address",
          "name": "",
          "type": "address"
        },
        {
          "internalType": "uint256",
          "name": "",
          "type": "uint256"
        },
        {
          "internalType": "uint256",
          "name": "",
          "type": "uint256"
        },
        {
          "internalType": "bytes",
          "name": "",
          "type": "bytes"
        }
      ],
      "name": "onERC1155Received",
      "outputs": [
        {
          "internalType": "bytes4",
          "name": "",
          "type": "bytes4"
        }
      ],
      "stateMutability": "nonpayable",
      "type": "function"
    },
    {
      "inputs": [
        {
          "internalType": "address",
          "name": "",
          "type": "address"
        },
        {
          "internalType": "address",
          "name": "",
          "type": "address"
        },
        {
          "internalType": "uint256",
          "name": "",
          "type": "uint256"
        },
        {
          "internalType": "bytes",
          "name": "",
          "type": "bytes"
        }
      ],
      "name": "onERC721Received",
      "outputs": [
        {
          "internalType": "bytes4",
          "name": "",
          "type": "bytes4"
        }
      ],
      "stateMutability": "nonpayable",
      "type": "function"
    },
    {
      "inputs": [],
      "name": "owner",
      "outputs": [
        {
          "internalType": "address",
          "name": "",
          "type": "address"
        }
      ],
      "stateMutability": "view",
      "type": "function"
    },
    {
      "inputs": [
        {
          "internalType": "uint256",
          "name": "proposalId",
          "type": "uint256"
        }
      ],
      "name": "proposalDeadline",
      "outputs": [
        {
          "internalType": "uint256",
          "name": "",
          "type": "uint256"
        }
      ],
      "stateMutability": "view",
      "type": "function"
    },
    {
      "inputs": [
        {
          "internalType": "uint256",
          "name": "proposalId",
          "type": "uint256"
        }
      ],
      "name": "proposalEta",
      "outputs": [
        {
          "internalType": "uint256",
          "name": "",
          "type": "uint256"
        }
      ],
      "stateMutability": "view",
      "type": "function"
    },
    {
      "inputs": [
        {
          "internalType": "uint256",
          "name": "",
          "type": "uint256"
        }
      ],
      "name": "proposalNeedsQueuing",
      "outputs": [
        {
          "internalType": "bool",
          "name": "",
          "type": "bool"
        }
      ],
      "stateMutability": "view",
      "type": "function"
    },
    {
      "inputs": [
        {
          "internalType": "uint256",
          "name": "proposalId",
          "type": "uint256"
        }
      ],
      "name": "proposalProposer",
      "outputs": [
        {
          "internalType": "address",
          "name": "",
          "type": "address"
        }
      ],
      "stateMutability": "view",
      "type": "function"
    },
    {
      "inputs": [
        {
          "internalType": "uint256",
          "name": "proposalId",
          "type": "uint256"
        }
      ],
      "name": "proposalSnapshot",
      "outputs": [
        {
          "internalType": "uint256",
          "name": "",
          "type": "uint256"
        }
      ],
      "stateMutability": "view",
      "type": "function"
    },
    {
      "inputs": [],
      "name": "proposalThreshold",
      "outputs": [
        {
          "internalType": "uint256",
          "name": "",
          "type": "uint256"
        }
      ],
      "stateMutability": "view",
      "type": "function"
    },
    {
      "inputs": [
        {
          "internalType": "uint256",
          "name": "proposalId",
          "type": "uint256"
        }
      ],
      "name": "proposalVotes",
      "outputs": [
        {
          "internalType": "uint256",
          "name": "againstVotes",
          "type": "uint256"
        },
        {
          "internalType": "uint256",
          "name": "forVotes",
          "type": "uint256"
        },
        {
          "internalType": "uint256",
          "name": "abstainVotes",
          "type": "uint256"
        }
      ],
      "stateMutability": "view",
      "type": "function"
    },
    {
      "inputs": [
        {
          "internalType": "address[]",
          "name": "targets",
          "type": "address[]"
        },
        {
          "internalType": "uint256[]",
          "name": "values",
          "type": "uint256[]"
        },
        {
          "internalType": "bytes[]",
          "name": "calldatas",
          "type": "bytes[]"
        },
        {
          "internalType": "string",
          "name": "description",
          "type": "string"
        }
      ],
      "name": "propose",
      "outputs": [
        {
          "internalType": "uint256",
          "name": "",
          "type": "uint256"
        }
      ],
      "stateMutability": "nonpayable",
      "type": "function"
    },
    {
      "inputs": [
        {
          "internalType": "address[]",
          "name": "targets",
          "type": "address[]"
        },
        {
          "internalType": "uint256[]",
          "name": "values",
          "type": "uint256[]"
        },
        {
          "internalType": "bytes[]",
          "name": "calldatas",
          "type": "bytes[]"
        },
        {
          "internalType": "bytes32",
          "name": "descriptionHash",
          "type": "bytes32"
        }
      ],
      "name": "queue",
      "outputs": [
        {
          "internalType": "uint256",
          "name": "",
          "type": "uint256"
        }
      ],
      "stateMutability": "nonpayable",
      "type": "function"
    },
    {
      "inputs": [
        {
          "internalType": "uint256",
          "name": "",
          "type": "uint256"
        }
      ],
      "name": "quorum",
      "outputs": [
        {
          "internalType": "uint256",
          "name": "",
          "type": "uint256"
        }
      ],
      "stateMutability": "view",
      "type": "function"
    },
    {
      "inputs": [
        {
          "internalType": "address",
          "name": "voter",
          "type": "address"
        }
      ],
      "name": "registerVoter",
      "outputs": [],
      "stateMutability": "nonpayable",
      "type": "function"
    },
    {
      "inputs": [
        {
          "internalType": "address",
          "name": "target",
          "type": "address"
        },
        {
          "internalType": "uint256",
          "name": "value",
          "type": "uint256"
        },
        {
          "internalType": "bytes",
          "name": "data",
          "type": "bytes"
        }
      ],
      "name": "relay",
      "outputs": [],
      "stateMutability": "payable",
      "type": "function"
    },
    {
      "inputs": [
        {
          "internalType": "address",
          "name": "voter",
          "type": "address"
        }
      ],
      "name": "removeVoter",
      "outputs": [],
      "stateMutability": "nonpayable",
      "type": "function"
    },
    {
      "inputs": [],
      "name": "renounceOwnership",
      "outputs": [],
      "stateMutability": "nonpayable",
      "type": "function"
    },
    {
      "inputs": [
        {
          "internalType": "uint256",
          "name": "newProposalThreshold",
          "type": "uint256"
        }
      ],
      "name": "setProposalThreshold",
      "outputs": [],
      "stateMutability": "nonpayable",
      "type": "function"
    },
    {
      "inputs": [
        {
          "internalType": "uint48",
          "name": "newVotingDelay",
          "type": "uint48"
        }
      ],
      "name": "setVotingDelay",
      "outputs": [],
      "stateMutability": "nonpayable",
      "type": "function"
    },
    {
      "inputs": [
        {
          "internalType": "uint32",
          "name": "newVotingPeriod",
          "type": "uint32"
        }
      ],
      "name": "setVotingPeriod",
      "outputs": [],
      "stateMutability": "nonpayable",
      "type": "function"
    },
    {
      "inputs": [
        {
          "internalType": "uint256",
          "name": "proposalId",
          "type": "uint256"
        }
      ],
      "name": "state",
      "outputs": [
        {
          "internalType": "enum IGovernor.ProposalState",
          "name": "",
          "type": "uint8"
        }
      ],
      "stateMutability": "view",
      "type": "function"
    },
    {
      "inputs": [
        {
          "internalType": "bytes4",
          "name": "interfaceId",
          "type": "bytes4"
        }
      ],
      "name": "supportsInterface",
      "outputs": [
        {
          "internalType": "bool",
          "name": "",
          "type": "bool"
        }
      ],
      "stateMutability": "view",
      "type": "function"
    },
    {
      "inputs": [],
      "name": "token",
      "outputs": [
        {
          "internalType": "contract IERC5805",
          "name": "",
          "type": "address"
        }
      ],
      "stateMutability": "view",
      "type": "function"
    },
    {
      "inputs": [],
      "name": "totalVoters",
      "outputs": [
        {
          "internalType": "uint256",
          "name": "",
          "type": "uint256"
        }
      ],
      "stateMutability": "view",
      "type": "function"
    },
    {
      "inputs": [
        {
          "internalType": "address",
          "name": "newOwner",
          "type": "address"
        }
      ],
      "name": "transferOwnership",
      "outputs": [],
      "stateMutability": "nonpayable",
      "type": "function"
    },
    {
      "inputs": [],
      "name": "version",
      "outputs": [
        {
          "internalType": "string",
          "name": "",
          "type": "string"
        }
      ],
      "stateMutability": "view",
      "type": "function"
    },
    {
      "inputs": [],
      "name": "votingDelay",
      "outputs": [
        {
          "internalType": "uint256",
          "name": "",
          "type": "uint256"
        }
      ],
      "stateMutability": "view",
      "type": "function"
    },
    {
      "inputs": [],
      "name": "votingPeriod",
      "outputs": [
        {
          "internalType": "uint256",
          "name": "",
          "type": "uint256"
        }
      ],
      "stateMutability": "view",
      "type": "function"
    },
    {
      "stateMutability": "payable",
      "type": "receive"
    }
  ],
  "bytecode": "0x61018060405234801561001157600080fd5b506040516140ae3803806140ae833981016040819052610030916103dc565b8082600062015180670de0b6b3a76400006040518060400160405280600c81526020016b22bb39b223b7bb32b93737b960a11b8152508061007561019e60201b60201c565b6100808260006101b9565b6101205261008f8160016101b9565b61014052815160208084019190912060e052815190820120610100524660a05261011c60e05161010051604080517f8b73c3c69bb8fe3d512ecc4cf759cc79239f7b179b0ffacaa9a75d522b39400f60208201529081019290925260608201524660808201523060a082015260009060c00160405160208183030381529060405280519060200120905090565b60805250503060c052600361013182826104b5565b5061013d9050836101ec565b61014682610252565b61014f816102f3565b5050506001600160a01b0390811661016052811661018857604051631e4fbdf760e01b8152600060048201526024015b60405180910390fd5b61019181610334565b50506000600b55506105e5565b6040805180820190915260018152603160f81b602082015290565b60006020835110156101d5576101ce83610386565b90506101e6565b816101e084826104b5565b5060ff90505b92915050565b6008546040805165ffffffffffff928316815291831660208301527fc565b045403dc03c2eea82b81a0465edad9e2e7fc4d97e11421c209da93d7a93910160405180910390a16008805465ffffffffffff191665ffffffffffff92909216919091179055565b8063ffffffff1660000361027c5760405163f1cfbf0560e01b81526000600482015260240161017f565b6008546040805163ffffffff66010000000000009093048316815291831660208301527f7e3f7f0708a84de9203036abaa450dccc85ad5ff52f78c170f3edb55cf5e8828910160405180910390a16008805463ffffffff90921666010000000000000263ffffffff60301b19909216919091179055565b60075460408051918252602082018390527fccb45da8d5717e6c4544694297c4ba5cf151d455c9bb0ed4fc7a38411bc05461910160405180910390a1600755565b600a80546001600160a01b038381166001600160a01b0319831681179093556040519116919082907f8be0079c531659141344cd1fd0a4f28419497f9722a3daafe3b4186f6b6457e090600090a35050565b600080829050601f815111156103b1578260405163305a27a960e01b815260040161017f9190610573565b80516103bc826105c1565b179392505050565b6001600160a01b03811681146103d957600080fd5b50565b600080604083850312156103ef57600080fd5b82516103fa816103c4565b602084015190925061040b816103c4565b809150509250929050565b634e487b7160e01b600052604160045260246000fd5b600181811c9082168061044057607f821691505b60208210810361046057634e487b7160e01b600052602260045260246000fd5b50919050565b601f8211156104b057806000526020600020601f840160051c8101602085101561048d5750805b601f840160051c820191505b818110156104ad5760008155600101610499565b50505b505050565b81516001600160401b038111156104ce576104ce610416565b6104e2816104dc845461042c565b84610466565b6020601f82116001811461051657600083156104fe5750848201515b600019600385901b1c1916600184901b1784556104ad565b600084815260208120601f198516915b828110156105465787850151825560209485019460019092019101610526565b50848210156105645786840151600019600387901b60f8161c191681555b50505050600190811b01905550565b602081526000825180602084015260005b818110156105a15760208186018101516040868401015201610584565b506000604082850101526040601f19601f83011684010191505092915050565b805160208083015191908110156104605760001960209190910360031b1b16919050565b60805160a05160c05160e05161010051610120516101405161016051613a4f61065f60003960008181610a5b01528181610faf0152818161155f015261207e015260006120490152600061201c015260006122f7015260006122cf0152600061222a015260006122540152600061227e0152613a4f6000f3fe6080604052600436106102cd5760003560e01c80637d5e81e211610175578063bc197c81116100dc578063e540d01d11610095578063f23a6e611161006f578063f23a6e61146109e0578063f2fde38b14610a0c578063f8ce560a14610a2c578063fc0c546a14610a4c57600080fd5b8063e540d01d14610980578063eb9019d4146109a0578063ece40cc1146109c057600080fd5b8063bc197c8114610887578063c01f9e37146108b3578063c28bc2fa146108d3578063c59057e4146108e6578063dd4e2ba514610906578063deaaa7cc1461094c57600080fd5b806391ddadf41161012e57806391ddadf4146107ad5780639a802a6d146107d9578063a8f8a668146107f9578063a9a9529414610819578063ab58fb8e1461083a578063b58131b01461087257600080fd5b80637d5e81e2146106d15780637ecebe00146106f157806384b0196e1461072757806386c1ff681461074f5780638da5cb5b1461076f5780638ff262e31461078d57600080fd5b80633e4f49e61161023457806356781388116101ed5780635f5300ff116101c75780635f5300ff14610666578063715018a61461067c57806379051887146106915780637b3c71d3146106b157600080fd5b806356781388146106065780635b8d0e0d146106265780635f398a141461064657600080fd5b80633e4f49e6146104db5780634385963214610508578063452115d6146105525780634bf5d7e914610572578063544ffc9c1461058757806354fd4d50146105dc57600080fd5b8063160cbed711610286578063160cbed71461041f5780632656227d1461043f5780632d63f693146104525780632fe3e2611461047257806338db6dd3146104a65780633932abb1146104c657600080fd5b806301ffc9a7146102da57806302a251a31461030f57806306fdde031461033b578063119b70ac1461035d578063143489d01461038d578063150b7a02146103db57600080fd5b366102d5575b005b600080fd5b3480156102e657600080fd5b506102fa6102f5366004612a46565b610a7f565b60405190151581526020015b60405180910390f35b34801561031b57600080fd5b50600854600160301b900463ffffffff165b604051908152602001610306565b34801561034757600080fd5b50610350610af1565b6040516103069190612ac0565b34801561036957600080fd5b506102fa610378366004612aea565b600c6020526000908152604090205460ff1681565b34801561039957600080fd5b506103c36103a8366004612b05565b6000908152600460205260409020546001600160a01b031690565b6040516001600160a01b039091168152602001610306565b3480156103e757600080fd5b506104066103f6366004612be9565b630a85bd0160e11b949350505050565b6040516001600160e01b03199091168152602001610306565b34801561042b57600080fd5b5061032d61043a366004612db8565b610b83565b61032d61044d366004612db8565b610bcd565b34801561045e57600080fd5b5061032d61046d366004612b05565b610cf8565b34801561047e57600080fd5b5061032d7f3e83946653575f9a39005e1545185629e92736b7528ab20ca3816f315424a81181565b3480156104b257600080fd5b506102d36104c1366004612aea565b610d19565b3480156104d257600080fd5b5061032d610dfc565b3480156104e757600080fd5b506104fb6104f6366004612b05565b610e0f565b6040516103069190612e89565b34801561051457600080fd5b506102fa610523366004612e97565b60008281526009602090815260408083206001600160a01b038516845260030190915290205460ff1692915050565b34801561055e57600080fd5b5061032d61056d366004612db8565b610f49565b34801561057e57600080fd5b50610350610fab565b34801561059357600080fd5b506105c16105a2366004612b05565b6000908152600960205260409020805460018201546002909201549092565b60408051938452602084019290925290820152606001610306565b3480156105e857600080fd5b506040805180820190915260018152603160f81b6020820152610350565b34801561061257600080fd5b5061032d610621366004612ed4565b61106d565b34801561063257600080fd5b5061032d610641366004612f3f565b611096565b34801561065257600080fd5b5061032d610661366004613001565b6111f5565b34801561067257600080fd5b5061032d600b5481565b34801561068857600080fd5b506102d361123f565b34801561069d57600080fd5b506102d36106ac36600461309c565b611253565b3480156106bd57600080fd5b5061032d6106cc3660046130b9565b611267565b3480156106dd57600080fd5b5061032d6106ec366004613112565b6112b9565b3480156106fd57600080fd5b5061032d61070c366004612aea565b6001600160a01b031660009081526002602052604090205490565b34801561073357600080fd5b5061073c611372565b6040516103069796959493929190613212565b34801561075b57600080fd5b506102d361076a366004612aea565b6113b8565b34801561077b57600080fd5b50600a546001600160a01b03166103c3565b34801561079957600080fd5b5061032d6107a8366004613282565b611489565b3480156107b957600080fd5b506107c261155b565b60405165ffffffffffff9091168152602001610306565b3480156107e557600080fd5b5061032d6107f43660046132d1565b6115e3565b34801561080557600080fd5b5061032d610814366004612db8565b6115fa565b34801561082557600080fd5b506102fa610834366004612b05565b50600090565b34801561084657600080fd5b5061032d610855366004612b05565b60009081526004602052604090206001015465ffffffffffff1690565b34801561087e57600080fd5b5061032d611611565b34801561089357600080fd5b506104066108a2366004613327565b63bc197c8160e01b95945050505050565b3480156108bf57600080fd5b5061032d6108ce366004612b05565b61161c565b6102d36108e13660046133c1565b61165f565b3480156108f257600080fd5b5061032d610901366004612db8565b6116df565b34801561091257600080fd5b506040805180820190915260208082527f737570706f72743d627261766f2671756f72756d3d666f722c6162737461696e90820152610350565b34801561095857600080fd5b5061032d7ff2aad550cf55f045cb27e9c559f9889fdfb6e6cdaa032301d6ea397784ae51d781565b34801561098c57600080fd5b506102d361099b366004613402565b611719565b3480156109ac57600080fd5b5061032d6109bb366004613428565b61172a565b3480156109cc57600080fd5b506102d36109db366004612b05565b61174b565b3480156109ec57600080fd5b506104066109fb366004613452565b63f23a6e6160e01b95945050505050565b348015610a1857600080fd5b506102d3610a27366004612aea565b61175c565b348015610a3857600080fd5b5061032d610a47366004612b05565b611797565b348015610a5857600080fd5b507f00000000000000000000000000000000000000000000000000000000000000006103c3565b60006001600160e01b031982166366defe7760e11b1480610ab057506001600160e01b031982166332a2ad4360e11b145b80610acb57506001600160e01b03198216630271189760e51b145b80610ae657506301ffc9a760e01b6001600160e01b03198316145b92915050565b905090565b606060038054610b00906134aa565b80601f0160208091040260200160405190810160405280929190818152602001828054610b2c906134aa565b8015610b795780601f10610b4e57610100808354040283529160200191610b79565b820191906000526020600020905b815481529060010190602001808311610b5c57829003601f168201915b5050505050905090565b600080610b92868686866115fa565b9050610ba781610ba260046117e2565b611805565b506000604051634844252360e11b815260040160405180910390fd5b5095945050505050565b600080610bdc868686866115fa565b9050610bfc81610bec60056117e2565b610bf660046117e2565b17611805565b506000818152600460205260409020805460ff60f01b1916600160f01b17905530610c243090565b6001600160a01b031614610cae5760005b8651811015610cac57306001600160a01b0316878281518110610c5a57610c5a6134e4565b60200260200101516001600160a01b031603610ca457610ca4858281518110610c8557610c856134e4565b602002602001015180519060200120600561184490919063ffffffff16565b600101610c35565b505b610cbb81878787876118a6565b6040518181527f712ae1383f79ac853f8d882153778e0260ef8f03b504e2866e0593e04d2b291f906020015b60405180910390a195945050505050565b600090815260046020526040902054600160a01b900465ffffffffffff1690565b610d21611980565b6001600160a01b0381166000908152600c602052604090205460ff1615610d8f5760405162461bcd60e51b815260206004820152601860248201527f566f74657220616c72656164792072656769737465726564000000000000000060448201526064015b60405180910390fd5b6001600160a01b0381166000908152600c60205260408120805460ff19166001179055600b805491610dc083613510565b90915550506040516001600160a01b038216907fb6be2187d059cc2a55fe29e0e503b566e1e0f8c8780096e185429350acffd3dd90600090a250565b6000610aec60085465ffffffffffff1690565b6000818152600460205260408120805460ff600160f01b8204811691600160f81b9004168115610e4457506007949350505050565b8015610e5557506002949350505050565b6000610e6086610cf8565b905080600003610e8657604051636ad0607560e01b815260048101879052602401610d86565b6000610e9061155b565b65ffffffffffff169050808210610eae575060009695505050505050565b6000610eb98861161c565b9050818110610ed057506001979650505050505050565b610ed9886119ad565b1580610ef957506000888152600960205260409020805460019091015411155b15610f0c57506003979650505050505050565b60008881526004602052604090206001015465ffffffffffff16600003610f3b57506004979650505050505050565b506005979650505050505050565b600080610f58868686866115fa565b905033610f6582826119e4565b610f9457604051638fe5d8a960e01b8152600481018390526001600160a01b0382166024820152604401610d86565b610fa087878787611a2b565b979650505050505050565b60607f00000000000000000000000000000000000000000000000000000000000000006001600160a01b0316634bf5d7e96040518163ffffffff1660e01b8152600401600060405180830381865afa92505050801561102c57506040513d6000823e601f3d908101601f191682016040526110299190810190613529565b60015b611068575060408051808201909152601d81527f6d6f64653d626c6f636b6e756d6265722666726f6d3d64656661756c74000000602082015290565b919050565b60008033905061108e84828560405180602001604052806000815250611adc565b949350505050565b600080611179876111737f3e83946653575f9a39005e1545185629e92736b7528ab20ca3816f315424a8118c8c8c6110eb8e6001600160a01b0316600090815260026020526040902080546001810190915590565b8d8d6040516110fb929190613596565b60405180910390208c805190602001206040516020016111589796959493929190968752602087019590955260ff9390931660408601526001600160a01b03919091166060850152608084015260a083015260c082015260e00190565b60405160208183030381529060405280519060200120611aff565b85611b2c565b9050806111a4576040516394ab6c0760e01b81526001600160a01b0388166004820152602401610d86565b6111e889888a89898080601f0160208091040260200160405190810160405280939291908181526020018383808284376000920191909152508b9250611ba0915050565b9998505050505050505050565b600080339050610fa087828888888080601f0160208091040260200160405190810160405280939291908181526020018383808284376000920191909152508a9250611ba0915050565b611247611980565b6112516000611c82565b565b61125b611cd4565b61126481611d09565b50565b6000803390506112af86828787878080601f016020809104026020016040519081016040528093929190818152602001838380828437600092019190915250611adc92505050565b9695505050505050565b6000336112c68184611d6f565b6112ee5760405163d9b3955760e01b81526001600160a01b0382166004820152602401610d86565b60006112f8611611565b9050801561136557600061132783600161131061155b565b61131a91906135a6565b65ffffffffffff1661172a565b90508181101561136357604051636121770b60e11b81526001600160a01b03841660048201526024810182905260448101839052606401610d86565b505b610fa08787878786611df5565b600060608060008060006060611386612015565b61138e612042565b60408051600080825260208201909252600f60f81b9b939a50919850469750309650945092509050565b6113c0611980565b6001600160a01b0381166000908152600c602052604090205460ff1661141f5760405162461bcd60e51b8152602060048201526014602482015273159bdd195c881b9bdd081c9959da5cdd195c995960621b6044820152606401610d86565b6001600160a01b0381166000908152600c60205260408120805460ff19169055600b80549161144d836135c4565b90915550506040516001600160a01b038216907fa14a79af012d1756818f9bd59ccfc9ad185a71df86b9392d9059d9e6faf6d64490600090a250565b600080611515846111737ff2aad550cf55f045cb27e9c559f9889fdfb6e6cdaa032301d6ea397784ae51d78989896114de8b6001600160a01b0316600090815260026020526040902080546001810190915590565b60408051602081019690965285019390935260ff90911660608401526001600160a01b0316608083015260a082015260c001611158565b905080611540576040516394ab6c0760e01b81526001600160a01b0385166004820152602401610d86565b6112af86858760405180602001604052806000815250611adc565b60007f00000000000000000000000000000000000000000000000000000000000000006001600160a01b03166391ddadf46040518163ffffffff1660e01b8152600401602060405180830381865afa9250505080156115d7575060408051601f3d908101601f191682019092526115d4918101906135db565b60015b61106857610aec61206f565b60006115f084848461207a565b90505b9392505050565b6000611608858585856116df565b95945050505050565b6000610aec60075490565b60008181526004602052604081205461165190600160d01b810463ffffffff1690600160a01b900465ffffffffffff166135f8565b65ffffffffffff1692915050565b611667611cd4565b600080856001600160a01b0316858585604051611685929190613596565b60006040518083038185875af1925050503d80600081146116c2576040519150601f19603f3d011682016040523d82523d6000602084013e6116c7565b606091505b50915091506116d68282612110565b50505050505050565b6000848484846040516020016116f894939291906136ad565b60408051601f19818403018152919052805160209091012095945050505050565b611721611cd4565b6112648161212c565b60006115f3838361174660408051602081019091526000815290565b61207a565b611753611cd4565b611264816121ca565b611764611980565b6001600160a01b03811661178e57604051631e4fbdf760e01b815260006004820152602401610d86565b61126481611c82565b6000600b546000036117b25750670de0b6b3a7640000919050565b60006002600b546117c391906136f8565b6117ce90600161371a565b90506115f381670de0b6b3a764000061372d565b60008160078111156117f6576117f6612e51565b600160ff919091161b92915050565b60008061181184610e0f565b905060008361181f836117e2565b16036115f3578381846040516331b75e4d60e01b8152600401610d8693929190613744565b81546001600160801b03600160801b82048116918116600183019091160361187057611870604161220b565b6001600160801b03808216600090815260018086016020526040909120939093558354919092018216600160801b029116179055565b60005b8451811015611978576000808683815181106118c7576118c76134e4565b60200260200101516001600160a01b03168684815181106118ea576118ea6134e4565b6020026020010151868581518110611904576119046134e4565b60200260200101516040516119199190613766565b60006040518083038185875af1925050503d8060008114611956576040519150601f19603f3d011682016040523d82523d6000602084013e61195b565b606091505b509150915061196a8282612110565b5050508060010190506118a9565b505050505050565b600a546001600160a01b031633146112515760405163118cdaa760e01b8152336004820152602401610d86565b6000818152600960205260408120600281015460018201546119cf919061371a565b6119db610a4785610cf8565b11159392505050565b6000806119f084610e0f565b6007811115611a0157611a01612e51565b1480156115f3575050600091825260046020526040909120546001600160a01b0391821691161490565b600080611a3a868686866115fa565b9050611a8881611a4a60076117e2565b611a5460066117e2565b611a5e60026117e2565b6001611a6b600782613782565b611a7690600261387a565b611a809190613889565b181818611805565b506000818152600460205260409081902080546001600160f81b0316600160f81b179055517f789cf55be980739dad1d0699b93b58e806b51c9d96619bfa8fe0a28abaa7b30c90610ce79083815260200190565b600061160885858585611afa60408051602081019091526000815290565b611ba0565b6000610ae6611b0c61221d565b8360405161190160f01b8152600281019290925260228201526042902090565b6000836001600160a01b03163b600003611b8e57600080611b4d8585612348565b5090925090506000816003811115611b6757611b67612e51565b148015611b855750856001600160a01b0316826001600160a01b0316145b925050506115f3565b611b99848484612395565b90506115f3565b6000611bb086610ba260016117e2565b506000611bc686611bc089610cf8565b8561207a565b90506000611bd78888888588612470565b90508351600003611c2e57866001600160a01b03167fb8e138887d0aa13bab447e82de9d5c1777041ecd21ca36ba824ff1e6c07ddda489888489604051611c21949392919061389c565b60405180910390a2610fa0565b866001600160a01b03167fe2babfbac5889a709b63bb7f598b324e08bc5a4fb9ec647fb3cbc9ec07eb87128988848989604051611c6f9594939291906138c4565b60405180910390a2979650505050505050565b600a80546001600160a01b038381166001600160a01b0319831681179093556040519116919082907f8be0079c531659141344cd1fd0a4f28419497f9722a3daafe3b4186f6b6457e090600090a35050565b303314611251576040516347096e4760e01b8152336004820152602401610d86565b80611d016005612573565b03611cf65750565b6008546040805165ffffffffffff928316815291831660208301527fc565b045403dc03c2eea82b81a0465edad9e2e7fc4d97e11421c209da93d7a93910160405180910390a16008805465ffffffffffff191665ffffffffffff92909216919091179055565b80516000906034811015611d87576001915050610ae6565b60131981840101516001600160b01b03198116692370726f706f7365723d60b01b14611db857600192505050610ae6565b600080611dc986602a8603866125e2565b91509150811580610fa05750866001600160a01b0316816001600160a01b031614979650505050505050565b6000611e0a86868686805190602001206115fa565b905084518651141580611e1f57508351865114155b80611e2957508551155b15611e5e57855184518651604051630447b05d60e41b8152600481019390935260248301919091526044820152606401610d86565b600081815260046020526040902054600160a01b900465ffffffffffff1615611ea95780611e8b82610e0f565b6040516331b75e4d60e01b8152610d86929190600090600401613744565b6000611eb3610dfc565b611ebb61155b565b65ffffffffffff16611ecd919061371a565b90506000611ee860085463ffffffff600160301b9091041690565b600084815260046020526040902080546001600160a01b0319166001600160a01b038716178155909150611f1b83612695565b815465ffffffffffff91909116600160a01b0265ffffffffffff60a01b19909116178155611f48826126cc565b815463ffffffff91909116600160d01b0263ffffffff60d01b1990911617815588517f7d84a6263ae0d98d3329bd7b46bb4e8d6f98cd35a7adb45c274c8b7fd5ebd5e090859087908c908c906001600160401b03811115611fab57611fab612b1e565b604051908082528060200260200182016040528015611fde57816020015b6060815260200190600190039081611fc95790505b508c89611feb8a8261371a565b8e6040516120019998979695949392919061390a565b60405180910390a150505095945050505050565b6060610aec7f000000000000000000000000000000000000000000000000000000000000000060006126fd565b6060610aec7f000000000000000000000000000000000000000000000000000000000000000060016126fd565b6000610aec43612695565b60007f0000000000000000000000000000000000000000000000000000000000000000604051630748d63560e31b81526001600160a01b038681166004830152602482018690529190911690633a46b1a890604401602060405180830381865afa1580156120ec573d6000803e3d6000fd5b505050506040513d601f19601f820116820180604052508101906115f091906139e7565b60608261212557612120826127a8565b610ae6565b5080610ae6565b8063ffffffff166000036121565760405163f1cfbf0560e01b815260006004820152602401610d86565b6008546040805163ffffffff600160301b9093048316815291831660208301527f7e3f7f0708a84de9203036abaa450dccc85ad5ff52f78c170f3edb55cf5e8828910160405180910390a16008805463ffffffff909216600160301b0269ffffffff00000000000019909216919091179055565b60075460408051918252602082018390527fccb45da8d5717e6c4544694297c4ba5cf151d455c9bb0ed4fc7a38411bc05461910160405180910390a1600755565b634e487b71600052806020526024601cfd5b6000306001600160a01b037f00000000000000000000000000000000000000000000000000000000000000001614801561227657507f000000000000000000000000000000000000000000000000000000000000000046145b156122a057507f000000000000000000000000000000000000000000000000000000000000000090565b610aec604080517f8b73c3c69bb8fe3d512ecc4cf759cc79239f7b179b0ffacaa9a75d522b39400f60208201527f0000000000000000000000000000000000000000000000000000000000000000918101919091527f000000000000000000000000000000000000000000000000000000000000000060608201524660808201523060a082015260009060c00160405160208183030381529060405280519060200120905090565b600080600083516041036123825760208401516040850151606086015160001a612374888285856127d1565b95509550955050505061238e565b50508151600091506002905b9250925092565b6000806000856001600160a01b031685856040516024016123b7929190613a00565b60408051601f198184030181529181526020820180516001600160e01b0316630b135d3f60e11b179052516123ec9190613766565b600060405180830381855afa9150503d8060008114612427576040519150601f19603f3d011682016040523d82523d6000602084013e61242c565b606091505b509150915081801561244057506020815110155b80156112af57508051630b135d3f60e11b9061246590830160209081019084016139e7565b149695505050505050565b60008581526009602090815260408083206001600160a01b03881684526003810190925282205460ff16156124c3576040516371c6af4960e01b81526001600160a01b0387166004820152602401610d86565b6001600160a01b03861660009081526003820160205260409020805460ff1916600117905560ff851661250f5783816000016000828254612504919061371a565b909155506125689050565b60001960ff86160161252f5783816001016000828254612504919061371a565b60011960ff86160161254f5783816002016000828254612504919061371a565b6040516303599be160e11b815260040160405180910390fd5b509195945050505050565b80546000906001600160801b0380821691600160801b900416810361259c5761259c603161220b565b6001600160801b038181166000908152600185810160205260408220805492905585546fffffffffffffffffffffffffffffffff19169301909116919091179092555090565b60008084518311806125f357508284115b156126035750600090508061268d565b600061261085600161371a565b84118015612638575061060f60f31b61262c8787016020015190565b6001600160f01b031916145b90506000612649821515600261372d565b61265490602861371a565b9050806126618787613889565b03612683576000806126748989896128a0565b909650945061268d9350505050565b6000809350935050505b935093915050565b600065ffffffffffff8211156126c8576040516306dfcc6560e41b81526030600482015260248101839052604401610d86565b5090565b600063ffffffff8211156126c8576040516306dfcc6560e41b81526020600482015260248101839052604401610d86565b606060ff83146127175761271083612966565b9050610ae6565b818054612723906134aa565b80601f016020809104026020016040519081016040528092919081815260200182805461274f906134aa565b801561279c5780601f106127715761010080835404028352916020019161279c565b820191906000526020600020905b81548152906001019060200180831161277f57829003601f168201915b50505050509050610ae6565b8051156127b85780518082602001fd5b60405163d6bda27560e01b815260040160405180910390fd5b600080807f7fffffffffffffffffffffffffffffff5d576e7357a4501ddfe92f46681b20a084111561280c5750600091506003905082612896565b604080516000808252602082018084528a905260ff891692820192909252606081018790526080810186905260019060a0016020604051602081039080840390855afa158015612860573d6000803e3d6000fd5b5050604051601f1901519150506001600160a01b03811661288c57506000925060019150829050612896565b9250600091508190505b9450945094915050565b60008084816128b086600161371a565b851180156128d8575061060f60f31b6128cc8388016020015190565b6001600160f01b031916145b905060006128e9821515600261372d565b90506000806128f8838a61371a565b90505b8781101561295557600061291a6129158784016020015190565b6129a5565b9050600f8160ff16111561293a576000809750975050505050505061268d565b61294560108461372d565b60ff9091160191506001016128fb565b506001999098509650505050505050565b6060600061297383612a1e565b604080516020808252818301909252919250600091906020820181803683375050509182525060208101929092525090565b600060f882901c602f811180156129bf5750603a8160ff16105b156129cd57602f1901610ae6565b60608160ff161180156129e3575060678160ff16105b156129f15760561901610ae6565b60408160ff16118015612a07575060478160ff16105b15612a155760361901610ae6565b5060ff92915050565b600060ff8216601f811115610ae657604051632cd44ac360e21b815260040160405180910390fd5b600060208284031215612a5857600080fd5b81356001600160e01b0319811681146115f357600080fd5b60005b83811015612a8b578181015183820152602001612a73565b50506000910152565b60008151808452612aac816020860160208601612a70565b601f01601f19169290920160200192915050565b6020815260006115f36020830184612a94565b80356001600160a01b038116811461106857600080fd5b600060208284031215612afc57600080fd5b6115f382612ad3565b600060208284031215612b1757600080fd5b5035919050565b634e487b7160e01b600052604160045260246000fd5b604051601f8201601f191681016001600160401b0381118282101715612b5c57612b5c612b1e565b604052919050565b60006001600160401b03821115612b7d57612b7d612b1e565b50601f01601f191660200190565b6000612b9e612b9984612b64565b612b34565b9050828152838383011115612bb257600080fd5b828260208301376000602084830101529392505050565b600082601f830112612bda57600080fd5b6115f383833560208501612b8b565b60008060008060808587031215612bff57600080fd5b612c0885612ad3565b9350612c1660208601612ad3565b92506040850135915060608501356001600160401b03811115612c3857600080fd5b612c4487828801612bc9565b91505092959194509250565b60006001600160401b03821115612c6957612c69612b1e565b5060051b60200190565b600082601f830112612c8457600080fd5b8135612c92612b9982612c50565b8082825260208201915060208360051b860101925085831115612cb457600080fd5b602085015b83811015610bc357612cca81612ad3565b835260209283019201612cb9565b600082601f830112612ce957600080fd5b8135612cf7612b9982612c50565b8082825260208201915060208360051b860101925085831115612d1957600080fd5b602085015b83811015610bc3578035835260209283019201612d1e565b600082601f830112612d4757600080fd5b8135612d55612b9982612c50565b8082825260208201915060208360051b860101925085831115612d7757600080fd5b602085015b83811015610bc35780356001600160401b03811115612d9a57600080fd5b612da9886020838a0101612bc9565b84525060209283019201612d7c565b60008060008060808587031215612dce57600080fd5b84356001600160401b03811115612de457600080fd5b612df087828801612c73565b94505060208501356001600160401b03811115612e0c57600080fd5b612e1887828801612cd8565b93505060408501356001600160401b03811115612e3457600080fd5b612e4087828801612d36565b949793965093946060013593505050565b634e487b7160e01b600052602160045260246000fd5b60088110612e8557634e487b7160e01b600052602160045260246000fd5b9052565b60208101610ae68284612e67565b60008060408385031215612eaa57600080fd5b82359150612eba60208401612ad3565b90509250929050565b803560ff8116811461106857600080fd5b60008060408385031215612ee757600080fd5b82359150612eba60208401612ec3565b60008083601f840112612f0957600080fd5b5081356001600160401b03811115612f2057600080fd5b602083019150836020828501011115612f3857600080fd5b9250929050565b600080600080600080600060c0888a031215612f5a57600080fd5b87359650612f6a60208901612ec3565b9550612f7860408901612ad3565b945060608801356001600160401b03811115612f9357600080fd5b612f9f8a828b01612ef7565b90955093505060808801356001600160401b03811115612fbe57600080fd5b612fca8a828b01612bc9565b92505060a08801356001600160401b03811115612fe657600080fd5b612ff28a828b01612bc9565b91505092959891949750929550565b60008060008060006080868803121561301957600080fd5b8535945061302960208701612ec3565b935060408601356001600160401b0381111561304457600080fd5b61305088828901612ef7565b90945092505060608601356001600160401b0381111561306f57600080fd5b61307b88828901612bc9565b9150509295509295909350565b65ffffffffffff8116811461126457600080fd5b6000602082840312156130ae57600080fd5b81356115f381613088565b600080600080606085870312156130cf57600080fd5b843593506130df60208601612ec3565b925060408501356001600160401b038111156130fa57600080fd5b61310687828801612ef7565b95989497509550505050565b6000806000806080858703121561312857600080fd5b84356001600160401b0381111561313e57600080fd5b61314a87828801612c73565b94505060208501356001600160401b0381111561316657600080fd5b61317287828801612cd8565b93505060408501356001600160401b0381111561318e57600080fd5b61319a87828801612d36565b92505060608501356001600160401b038111156131b657600080fd5b8501601f810187136131c757600080fd5b612c4487823560208401612b8b565b600081518084526020840193506020830160005b828110156132085781518652602095860195909101906001016131ea565b5093949350505050565b60ff60f81b8816815260e06020820152600061323160e0830189612a94565b82810360408401526132438189612a94565b606084018890526001600160a01b038716608085015260a0840186905283810360c0850152905061327481856131d6565b9a9950505050505050505050565b6000806000806080858703121561329857600080fd5b843593506132a860208601612ec3565b92506132b660408601612ad3565b915060608501356001600160401b03811115612c3857600080fd5b6000806000606084860312156132e657600080fd5b6132ef84612ad3565b92506020840135915060408401356001600160401b0381111561331157600080fd5b61331d86828701612bc9565b9150509250925092565b600080600080600060a0868803121561333f57600080fd5b61334886612ad3565b945061335660208701612ad3565b935060408601356001600160401b0381111561337157600080fd5b61337d88828901612cd8565b93505060608601356001600160401b0381111561339957600080fd5b6133a588828901612cd8565b92505060808601356001600160401b0381111561306f57600080fd5b600080600080606085870312156133d757600080fd5b6133e085612ad3565b93506020850135925060408501356001600160401b038111156130fa57600080fd5b60006020828403121561341457600080fd5b813563ffffffff811681146115f357600080fd5b6000806040838503121561343b57600080fd5b61344483612ad3565b946020939093013593505050565b600080600080600060a0868803121561346a57600080fd5b61347386612ad3565b945061348160208701612ad3565b9350604086013592506060860135915060808601356001600160401b0381111561306f57600080fd5b600181811c908216806134be57607f821691505b6020821081036134de57634e487b7160e01b600052602260045260246000fd5b50919050565b634e487b7160e01b600052603260045260246000fd5b634e487b7160e01b600052601160045260246000fd5b600060018201613522576135226134fa565b5060010190565b60006020828403121561353b57600080fd5b81516001600160401b0381111561355157600080fd5b8201601f8101841361356257600080fd5b8051613570612b9982612b64565b81815285602083850101111561358557600080fd5b611608826020830160208601612a70565b8183823760009101908152919050565b65ffffffffffff8281168282160390811115610ae657610ae66134fa565b6000816135d3576135d36134fa565b506000190190565b6000602082840312156135ed57600080fd5b81516115f381613088565b65ffffffffffff8181168382160190811115610ae657610ae66134fa565b600081518084526020840193506020830160005b828110156132085781516001600160a01b031686526020958601959091019060010161362a565b600082825180855260208501945060208160051b8301016020850160005b838110156136a157601f1985840301885261368b838351612a94565b602098890198909350919091019060010161366f565b50909695505050505050565b6080815260006136c06080830187613616565b82810360208401526136d281876131d6565b905082810360408401526136e68186613651565b91505082606083015295945050505050565b60008261371557634e487b7160e01b600052601260045260246000fd5b500490565b80820180821115610ae657610ae66134fa565b8082028115828204841417610ae657610ae66134fa565b838152606081016137586020830185612e67565b826040830152949350505050565b60008251613778818460208701612a70565b9190910192915050565b60ff8181168382160190811115610ae657610ae66134fa565b6001815b600184111561268d578085048111156137ba576137ba6134fa565b60018416156137c857908102905b60019390931c92800261379f565b6000826137e557506001610ae6565b816137f257506000610ae6565b816001811461380857600281146138125761382e565b6001915050610ae6565b60ff841115613823576138236134fa565b50506001821b610ae6565b5060208310610133831016604e8410600b8410161715613851575081810a610ae6565b61385e600019848461379b565b8060001904821115613872576138726134fa565b029392505050565b60006115f360ff8416836137d6565b81810381811115610ae657610ae66134fa565b84815260ff841660208201528260408201526080606082015260006112af6080830184612a94565b85815260ff8516602082015283604082015260a0606082015260006138ec60a0830185612a94565b82810360808401526138fe8185612a94565b98975050505050505050565b8981526001600160a01b0389166020820152610120604082018190526000906139359083018a613616565b8281036060840152613947818a6131d6565b9050828103608084015280885180835260208301915060208160051b84010160208b0160005b8381101561399f57601f19868403018552613989838351612a94565b602095860195909350919091019060010161396d565b505085810360a08701526139b3818b613651565b93505050508560c08401528460e08401528281036101008401526139d78185612a94565b9c9b505050505050505050505050565b6000602082840312156139f957600080fd5b5051919050565b8281526040602082015260006115f06040830184612a9456fea264697066735822122001b53691790491eb1d6cbae66625e84866795487916a42a3d8b244275eaf969e64736f6c634300081c0033",
  "linkReferences": {},
  "deployedLinkReferences": {}
}