{
  "_format": "hh-sol-artifact-1",
  "contractName": "Announcements",
  "sourceName": "contracts/Announcements.sol",
  "abi": [
    {
      "inputs": [
        {
          "internalType": "address",
          "name": "initialOwner",
          "type": "address"
        }
      ],
      "stateMutability": "nonpayable",
      "type": "constructor"
    },
    {
      "inputs": [
        {
          "internalType": "address",
          "name": "owner",
          "type": "address"
        }
      ],
      "name": "OwnableInvalidOwner",
      "type": "error"
    },
    {
      "inputs": [
        {
          "internalType": "address",
          "name": "account",
          "type": "address"
        }
      ],
      "name": "OwnableUnauthorizedAccount",
      "type": "error"
    },
    {
      "anonymous": false,
      "inputs": [
        {
          "indexed": true,
          "internalType": "uint256",
          "name": "announcementId",
          "type": "uint256"
        },
        {
          "indexed": true,
          "internalType": "address",
          "name": "announcer",
          "type": "address"
        },
        {
          "indexed": false,
          "internalType": "string",
          "name": "content",
          "type": "string"
        },
        {
          "indexed": false,
          "internalType": "uint256",
          "name": "timestamp",
          "type": "uint256"
        }
      ],
      "name": "AnnouncementCreated",
      "type": "event"
    },
    {
      "anonymous": false,
      "inputs": [
        {
          "indexed": true,
          "internalType": "uint256",
          "name": "announcementId",
          "type": "uint256"
        }
      ],
      "name": "AnnouncementDeactivated",
      "type": "event"
    },
    {
      "anonymous": false,
      "inputs": [
        {
          "indexed": true,
          "internalType": "address",
          "name": "previousOwner",
          "type": "address"
        },
        {
          "indexed": true,
          "internalType": "address",
          "name": "newOwner",
          "type": "address"
        }
      ],
      "name": "OwnershipTransferred",
      "type": "event"
    },
    {
      "inputs": [],
      "name": "announcementCounter",
      "outputs": [
        {
          "internalType": "uint256",
          "name": "",
          "type": "uint256"
        }
      ],
      "stateMutability": "view",
      "type": "function"
    },
    {
      "inputs": [
        {
          "internalType": "uint256",
          "name": "",
          "type": "uint256"
        }
      ],
      "name": "announcements",
      "outputs": [
        {
          "internalType": "address",
          "name": "announcer",
          "type": "address"
        },
        {
          "internalType": "string",
          "name": "content",
          "type": "string"
        },
        {
          "internalType": "uint256",
          "name": "timestamp",
          "type": "uint256"
        },
        {
          "internalType": "bool",
          "name": "isActive",
          "type": "bool"
        }
      ],
      "stateMutability": "view",
      "type": "function"
    },
    {
      "inputs": [
        {
          "internalType": "string",
          "name": "content",
          "type": "string"
        }
      ],
      "name": "createAnnouncement",
      "outputs": [],
      "stateMutability": "nonpayable",
      "type": "function"
    },
    {
      "inputs": [
        {
          "internalType": "uint256",
          "name": "announcementId",
          "type": "uint256"
        }
      ],
      "name": "deactivateAnnouncement",
      "outputs": [],
      "stateMutability": "nonpayable",
      "type": "function"
    },
    {
      "inputs": [],
      "name": "getActiveAnnouncements",
      "outputs": [
        {
          "components": [
            {
              "internalType": "address",
              "name": "announcer",
              "type": "address"
            },
            {
              "internalType": "string",
              "name": "content",
              "type": "string"
            },
            {
              "internalType": "uint256",
              "name": "timestamp",
              "type": "uint256"
            },
            {
              "internalType": "bool",
              "name": "isActive",
              "type": "bool"
            }
          ],
          "internalType": "struct Announcement[]",
          "name": "",
          "type": "tuple[]"
        }
      ],
      "stateMutability": "view",
      "type": "function"
    },
    {
      "inputs": [],
      "name": "owner",
      "outputs": [
        {
          "internalType": "address",
          "name": "",
          "type": "address"
        }
      ],
      "stateMutability": "view",
      "type": "function"
    },
    {
      "inputs": [],
      "name": "renounceOwnership",
      "outputs": [],
      "stateMutability": "nonpayable",
      "type": "function"
    },
    {
      "inputs": [
        {
          "internalType": "address",
          "name": "newOwner",
          "type": "address"
        }
      ],
      "name": "transferOwnership",
      "outputs": [],
      "stateMutability": "nonpayable",
      "type": "function"
    }
  ],
  "bytecode": "0x608060405234801561001057600080fd5b50604051610c99380380610c9983398101604081905261002f916100be565b806001600160a01b03811661005e57604051631e4fbdf760e01b81526000600482015260240160405180910390fd5b6100678161006e565b50506100ee565b600080546001600160a01b038381166001600160a01b0319831681178455604051919092169283917f8be0079c531659141344cd1fd0a4f28419497f9722a3daafe3b4186f6b6457e09190a35050565b6000602082840312156100d057600080fd5b81516001600160a01b03811681146100e757600080fd5b9392505050565b610b9c806100fd6000396000f3fe608060405234801561001057600080fd5b50600436106100885760003560e01c80638b0f25b31161005b5780638b0f25b3146100ed5780638da5cb5b14610100578063f2fde38b1461011b578063f33a528e1461012e57600080fd5b80631bcfbe311461008d5780632d90d8da146100b9578063715018a6146100ce578063828770fa146100d6575b600080fd5b6100a061009b3660046107b6565b610143565b6040516100b09493929190610815565b60405180910390f35b6100cc6100c73660046107b6565b610203565b005b6100cc6103a5565b6100df60025481565b6040519081526020016100b0565b6100cc6100fb366004610851565b6103b9565b6000546040516001600160a01b0390911681526020016100b0565b6100cc6101293660046108c5565b6104e9565b610136610527565b6040516100b091906108f5565b6001602081905260009182526040909120805491810180546001600160a01b039093169261017090610992565b80601f016020809104026020016040519081016040528092919081815260200182805461019c90610992565b80156101e95780601f106101be576101008083540402835291602001916101e9565b820191906000526020600020905b8154815290600101906020018083116101cc57829003601f168201915b50505050600283015460039093015491929160ff16905084565b60008181526001602052604081206002015490036102685760405162461bcd60e51b815260206004820152601b60248201527f416e6e6f756e63656d656e7420646f6573206e6f74206578697374000000000060448201526064015b60405180910390fd5b60008181526001602052604090206003015460ff166102c95760405162461bcd60e51b815260206004820181905260248201527f416e6e6f756e63656d656e7420697320616c726561647920696e616374697665604482015260640161025f565b6000818152600160205260409020546001600160a01b03163314806103075750336102fc6000546001600160a01b031690565b6001600160a01b0316145b6103625760405162461bcd60e51b815260206004820152602660248201527f4f6e6c7920616e6e6f756e636572206f72206f776e65722063616e206465616360448201526574697661746560d01b606482015260840161025f565b600081815260016020526040808220600301805460ff191690555182917fab4b2c0a2753c649f9bbab76864fb8036a16d57a7765f73fd1891142f8a0830d91a250565b6103ad610739565b6103b76000610766565b565b6040518060800160405280336001600160a01b0316815260200183838080601f01602080910402602001604051908101604052809392919081815260200183838082843760009201829052509385525050426020840152506001604090920182905260028054829061042a906109cc565b91829055508152602080820192909252604001600020825181546001600160a01b0319166001600160a01b0390911617815590820151600182019061046f9082610a58565b506040820151816002015560608201518160030160006101000a81548160ff021916908315150217905550905050336001600160a01b03166002547fc1acb4225b4d9dd9a76f523cd46591f8ff5b622bbff445934dac2c41dd6bbfdb8484426040516104dd93929190610b17565b60405180910390a35050565b6104f1610739565b6001600160a01b03811661051b57604051631e4fbdf760e01b81526000600482015260240161025f565b61052481610766565b50565b6060600060015b60025481116105715760008181526001602052604090206003015460ff161561055f578161055b816109cc565b9250505b80610569816109cc565b91505061052e565b5060008167ffffffffffffffff81111561058d5761058d6109f3565b6040519080825280602002602001820160405280156105f457816020015b6105e1604051806080016040528060006001600160a01b0316815260200160608152602001600081526020016000151581525090565b8152602001906001900390816105ab5790505b509050600060015b60025481116107305760008181526001602052604090206003015460ff161561071e5760008181526001602081815260409283902083516080810190945280546001600160a01b0316845291820180549184019161065990610992565b80601f016020809104026020016040519081016040528092919081815260200182805461068590610992565b80156106d25780601f106106a7576101008083540402835291602001916106d2565b820191906000526020600020905b8154815290600101906020018083116106b557829003601f168201915b50505091835250506002820154602082015260039091015460ff1615156040909101528383610700816109cc565b94508151811061071257610712610b50565b60200260200101819052505b80610728816109cc565b9150506105fc565b50909392505050565b6000546001600160a01b031633146103b75760405163118cdaa760e01b815233600482015260240161025f565b600080546001600160a01b038381166001600160a01b0319831681178455604051919092169283917f8be0079c531659141344cd1fd0a4f28419497f9722a3daafe3b4186f6b6457e09190a35050565b6000602082840312156107c857600080fd5b5035919050565b6000815180845260005b818110156107f5576020818501810151868301820152016107d9565b506000602082860101526020601f19601f83011685010191505092915050565b6001600160a01b0385168152608060208201819052600090610839908301866107cf565b60408301949094525090151560609091015292915050565b6000806020838503121561086457600080fd5b823567ffffffffffffffff81111561087b57600080fd5b8301601f8101851361088c57600080fd5b803567ffffffffffffffff8111156108a357600080fd5b8560208284010111156108b557600080fd5b6020919091019590945092505050565b6000602082840312156108d757600080fd5b81356001600160a01b03811681146108ee57600080fd5b9392505050565b6000602082016020835280845180835260408501915060408160051b86010192506020860160005b8281101561098657868503603f19018452815180516001600160a01b03168652602080820151608091880182905290610958908801826107cf565b604083810151908901526060928301511515929097019190915250602093840193919091019060010161091d565b50929695505050505050565b600181811c908216806109a657607f821691505b6020821081036109c657634e487b7160e01b600052602260045260246000fd5b50919050565b6000600182016109ec57634e487b7160e01b600052601160045260246000fd5b5060010190565b634e487b7160e01b600052604160045260246000fd5b601f821115610a5357806000526020600020601f840160051c81016020851015610a305750805b601f840160051c820191505b81811015610a505760008155600101610a3c565b50505b505050565b815167ffffffffffffffff811115610a7257610a726109f3565b610a8681610a808454610992565b84610a09565b6020601f821160018114610aba5760008315610aa25750848201515b600019600385901b1c1916600184901b178455610a50565b600084815260208120601f198516915b82811015610aea5787850151825560209485019460019092019101610aca565b5084821015610b085786840151600019600387901b60f8161c191681555b50505050600190811b01905550565b604081528260408201528284606083013760006060848301015260006060601f19601f8601168301019050826020830152949350505050565b634e487b7160e01b600052603260045260246000fdfea2646970667358221220bc8a717a0466347f44e44337e7dddcb655c9a0975383c1fe7732f0e814a70e8564736f6c634300081c0033",
  "linkReferences": {},
  "deployedLinkReferences": {}
}